S01000007675206D657465722E73726563EC
S11300000C942A000C9447000C9447000C9447006D
S11300100C9447000C9447000C9447000C94470040
S11300200C9447000C9447000C9447000C94470030
S11300300C9447000C9447000C9447000C94470020
S11300400C9447000C9447000C9447000C94470010
S11300500C94470011241FBECFE5D8E0DEBFCDBF0E
S113006010E0A0E6B0E0EAEEF1E002C005900D92E7
S1130070A437B107D9F720E0A4E7B0E001C01D928E
S1130080A43FB207E1F70E947B000C94F3000C94A8
S1130090000080EC87B982E886B90895CF93DF9396
S11300A000D000D0CDB7DEB780EC87B986B18064CC
S11300B086B986B1806186B984B190E09A838983D8
S11300C085B190E09C838B838B819C81982F8827BA
S11300D09C838B8329813A818B819C81822B932BF6
S11300E09C838B838B819C810F900F900F900F903A
S11300F0DF91CF91089581B3806C81BB82B3806C12
S113010082BB84B38FEF84BB0E944900C0E0D0E07F
S113011025C00E944E00BC0180E090E08E01000FDB
S1130120111F000F111F0C581F4F2AE030E040E050
S113013050E00E94B200F80120833183428353834C
S1130140220F331FF901E05AFF4F808185BB8FE3F3
S11301509CE90197F1F700C000002196C031D10558
S1130160C4F2D4CF052E97FB1EF400940E94C9005C
S113017057FD07D00E94D10007FC03D04EF40C9425
S1130180C90050954095309521953F4F4F4F5F4F93
S1130190089590958095709561957F4F8F4F9F4FEF
S11301A00895A1E21A2EAA1BBB1BFD010DC0AA1FB4
S11301B0BB1FEE1FFF1FA217B307E407F50720F0CC
S11301C0A21BB30BE40BF50B661F771F881F991F47
S11301D01A9469F760957095809590959B01AC0190
S10D01E0BD01CF010895F894FFCF8C
S11301EA000000000100030007000F001F003F0089
S10701FA7F00FF007F
S9030000FC
